{
  "contractName": "AddProject",
  "abi": [
    {
      "anonymous": false,
      "inputs": [
        {
          "indexed": false,
          "internalType": "uint256",
          "name": "id",
          "type": "uint256"
        },
        {
          "indexed": false,
          "internalType": "string",
          "name": "name",
          "type": "string"
        },
        {
          "indexed": false,
          "internalType": "string",
          "name": "state",
          "type": "string"
        },
        {
          "indexed": false,
          "internalType": "uint256",
          "name": "amount",
          "type": "uint256"
        },
        {
          "indexed": false,
          "internalType": "uint256",
          "name": "startDate",
          "type": "uint256"
        },
        {
          "indexed": false,
          "internalType": "uint256",
          "name": "endDate",
          "type": "uint256"
        }
      ],
      "name": "ProjectAdded",
      "type": "event"
    },
    {
      "inputs": [
        {
          "internalType": "uint256",
          "name": "",
          "type": "uint256"
        }
      ],
      "name": "projectToOwner",
      "outputs": [
        {
          "internalType": "address",
          "name": "",
          "type": "address"
        }
      ],
      "stateMutability": "view",
      "type": "function",
      "constant": true
    },
    {
      "inputs": [
        {
          "internalType": "uint256",
          "name": "",
          "type": "uint256"
        }
      ],
      "name": "projects",
      "outputs": [
        {
          "internalType": "string",
          "name": "name",
          "type": "string"
        },
        {
          "internalType": "string",
          "name": "state",
          "type": "string"
        },
        {
          "internalType": "uint256",
          "name": "amount",
          "type": "uint256"
        },
        {
          "internalType": "uint256",
          "name": "startDate",
          "type": "uint256"
        },
        {
          "internalType": "uint256",
          "name": "endDate",
          "type": "uint256"
        }
      ],
      "stateMutability": "view",
      "type": "function",
      "constant": true
    },
    {
      "inputs": [
        {
          "internalType": "string",
          "name": "_name",
          "type": "string"
        },
        {
          "internalType": "string",
          "name": "_state",
          "type": "string"
        },
        {
          "internalType": "uint256",
          "name": "_amount",
          "type": "uint256"
        }
      ],
      "name": "addProject",
      "outputs": [],
      "stateMutability": "nonpayable",
      "type": "function"
    },
    {
      "inputs": [],
      "name": "getNumberOfProjects",
      "outputs": [
        {
          "internalType": "uint256",
          "name": "",
          "type": "uint256"
        }
      ],
      "stateMutability": "view",
      "type": "function",
      "constant": true
    }
  ],
  "bytecode": "0x608060405234801561001057600080fd5b50610ca7806100206000396000f3fe608060405234801561001057600080fd5b506004361061004c5760003560e01c8063107046bd1461005157806319ba0b63146100855780634f7cf790146100a35780635fd4f758146100d3575b600080fd5b61006b600480360381019061006691906104e1565b6100ef565b60405161007c9594939291906105ad565b60405180910390f35b61008d610245565b60405161009a919061060e565b60405180910390f35b6100bd60048036038101906100b891906104e1565b610251565b6040516100ca919061066a565b60405180910390f35b6100ed60048036038101906100e891906107ba565b610284565b005b600081815481106100ff57600080fd5b906000526020600020906005020160009150905080600001805461012290610874565b80601f016020809104026020016040519081016040528092919081815260200182805461014e90610874565b801561019b5780601f106101705761010080835404028352916020019161019b565b820191906000526020600020905b81548152906001019060200180831161017e57829003601f168201915b5050505050908060010180546101b090610874565b80601f01602080910402602001604051908101604052809291908181526020018280546101dc90610874565b80156102295780601f106101fe57610100808354040283529160200191610229565b820191906000526020600020905b81548152906001019060200180831161020c57829003601f168201915b5050505050908060020154908060030154908060040154905085565b60008080549050905090565b60016020528060005260406000206000915054906101000a900473ffffffffffffffffffffffffffffffffffffffff1681565b6000600260003373ffffffffffffffffffffffffffffffffffffffff1673ffffffffffffffffffffffffffffffffffffffff16815260200190815260200160002054146102d057600080fd5b60004290506000626ebe00826102e691906108d4565b905060006040518060a00160405280878152602001868152602001858152602001848152602001838152509080600181540180825580915050600190039060005260206000209060050201600090919091909150600082015181600001908161034f9190610ab4565b5060208201518160010190816103659190610ab4565b5060408201518160020155606082015181600301556080820151816004015550503360016000600160008054905061039d9190610b86565b815260200190815260200160002060006101000a81548173ffffffffffffffffffffffffffffffffffffffff021916908373ffffffffffffffffffffffffffffffffffffffff160217905550600260003373ffffffffffffffffffffffffffffffffffffffff1673ffffffffffffffffffffffffffffffffffffffff168152602001908152602001600020600081548092919061043990610bba565b91905055507fbcd9225cf7a5b8bc3641d8ae44c40b40021fa47ba210ad7ea5769534c6c7c4d760016000805490506104719190610b86565b868686868660405161048896959493929190610c02565b60405180910390a15050505050565b6000604051905090565b600080fd5b600080fd5b6000819050919050565b6104be816104ab565b81146104c957600080fd5b50565b6000813590506104db816104b5565b92915050565b6000602082840312156104f7576104f66104a1565b5b6000610505848285016104cc565b91505092915050565b600081519050919050565b600082825260208201905092915050565b60005b8381101561054857808201518184015260208101905061052d565b60008484015250505050565b6000601f19601f8301169050919050565b60006105708261050e565b61057a8185610519565b935061058a81856020860161052a565b61059381610554565b840191505092915050565b6105a7816104ab565b82525050565b600060a08201905081810360008301526105c78188610565565b905081810360208301526105db8187610565565b90506105ea604083018661059e565b6105f7606083018561059e565b610604608083018461059e565b9695505050505050565b6000602082019050610623600083018461059e565b92915050565b600073ffffffffffffffffffffffffffffffffffffffff82169050919050565b600061065482610629565b9050919050565b61066481610649565b82525050565b600060208201905061067f600083018461065b565b92915050565b600080fd5b600080fd5b7f4e487b7100000000000000000000000000000000000000000000000000000000600052604160045260246000fd5b6106c782610554565b810181811067ffffffffffffffff821117156106e6576106e561068f565b5b80604052505050565b60006106f9610497565b905061070582826106be565b919050565b600067ffffffffffffffff8211156107255761072461068f565b5b61072e82610554565b9050602081019050919050565b82818337600083830152505050565b600061075d6107588461070a565b6106ef565b9050828152602081018484840111156107795761077861068a565b5b61078484828561073b565b509392505050565b600082601f8301126107a1576107a0610685565b5b81356107b184826020860161074a565b91505092915050565b6000806000606084860312156107d3576107d26104a1565b5b600084013567ffffffffffffffff8111156107f1576107f06104a6565b5b6107fd8682870161078c565b935050602084013567ffffffffffffffff81111561081e5761081d6104a6565b5b61082a8682870161078c565b925050604061083b868287016104cc565b9150509250925092565b7f4e487b7100000000000000000000000000000000000000000000000000000000600052602260045260246000fd5b6000600282049050600182168061088c57607f821691505b60208210810361089f5761089e610845565b5b50919050565b7f4e487b7100000000000000000000000000000000000000000000000000000000600052601160045260246000fd5b60006108df826104ab565b91506108ea836104ab565b9250828201905080821115610902576109016108a5565b5b92915050565b60008190508160005260206000209050919050565b60006020601f8301049050919050565b600082821b905092915050565b60006008830261096a7fffffffffffffffffffffffffffffffffffffffffffffffffffffffffffffffff8261092d565b610974868361092d565b95508019841693508086168417925050509392505050565b6000819050919050565b60006109b16109ac6109a7846104ab565b61098c565b6104ab565b9050919050565b6000819050919050565b6109cb83610996565b6109df6109d7826109b8565b84845461093a565b825550505050565b600090565b6109f46109e7565b6109ff8184846109c2565b505050565b5b81811015610a2357610a186000826109ec565b600181019050610a05565b5050565b601f821115610a6857610a3981610908565b610a428461091d565b81016020851015610a51578190505b610a65610a5d8561091d565b830182610a04565b50505b505050565b600082821c905092915050565b6000610a8b60001984600802610a6d565b1980831691505092915050565b6000610aa48383610a7a565b9150826002028217905092915050565b610abd8261050e565b67ffffffffffffffff811115610ad657610ad561068f565b5b610ae08254610874565b610aeb828285610a27565b600060209050601f831160018114610b1e5760008415610b0c578287015190505b610b168582610a98565b865550610b7e565b601f198416610b2c86610908565b60005b82811015610b5457848901518255600182019150602085019450602081019050610b2f565b86831015610b715784890151610b6d601f891682610a7a565b8355505b6001600288020188555050505b505050505050565b6000610b91826104ab565b9150610b9c836104ab565b9250828203905081811115610bb457610bb36108a5565b5b92915050565b6000610bc5826104ab565b91507fffffffffffffffffffffffffffffffffffffffffffffffffffffffffffffffff8203610bf757610bf66108a5565b5b600182019050919050565b600060c082019050610c17600083018961059e565b8181036020830152610c298188610565565b90508181036040830152610c3d8187610565565b9050610c4c606083018661059e565b610c59608083018561059e565b610c6660a083018461059e565b97965050505050505056fea26469706673582212208db7ef2cd810c4203030672320386c532163c402151b1833c66faa5218baa40464736f6c63430008110033",
  "immutableReferences": {},
  "source": "// SPDX-License-Identifier: MIT\r\npragma solidity >=0.4.22 <0.9.0;\r\n\r\n/// @title Add a project to SeaLevelRaise or view all the projects already added\r\n/// @author Josua Benz\r\n/// @notice With this contract, you can add new projects in small states to SeaLevelRaise or get all the projects already added\r\n/// @dev Check if country is a small state has to be implemented on the client side\r\ncontract AddProject {\r\n\r\n    //definition of event, will the triggered when new project is added\r\n    event ProjectAdded(uint id, string name, string state, uint amount, uint startDate, uint endDate);\r\n\r\n    struct Project {\r\n        string name;\r\n        string state;\r\n        uint amount;\r\n        uint startDate;\r\n        uint endDate;\r\n    }\r\n    //Array which contains all projects, saved on the blockchain\r\n    Project[] public projects;\r\n    //Mapping a project to the wallet of the person which added this project, saved on the blockchain\r\n    mapping (uint => address) public projectToOwner;\r\n    mapping (address => uint) ownerProjectCount;\r\n\r\n    /// @notice Add new project to SeaLevelRaise. The sender is not allowed to add more than one project.\r\n    /// @dev The Alexandr N. Tetearing algorithm could increase precision\r\n    /// @param _name The name of the Ppoject.\r\n    /// @param _state The state in which the project is located. Check if this state is a small state has to be implemented in the front-end.\r\n    /// @param _amount The amount of Ether the project wants to raise.\r\n    function addProject(string memory _name, string memory _state, uint _amount) public {\r\n        //check whether user(address) has already created a project, if zero, then user can\r\n        //create a new project, otherwise user cannot create new project\r\n        require(ownerProjectCount[msg.sender] == 0);\r\n        //current timestamp as startDate\r\n        uint startDate = block.timestamp;\r\n        uint endDate = startDate + 12 weeks;\r\n        //add new project to array\r\n        projects.push(Project(_name, _state, _amount, startDate, endDate));\r\n        //add mapping between project and wallet\r\n        projectToOwner[projects.length-1] = msg.sender;\r\n        ownerProjectCount[msg.sender]++;\r\n        //emit event \"ProjectAdded\"\r\n        emit ProjectAdded(projects.length-1, _name, _state, _amount, startDate, endDate);\r\n    } \r\n\r\n    /// @notice get the number of projects currently saved on the blockchain\r\n    /// @return length the number of projects\r\n    function getNumberOfProjects() public view returns(uint) {\r\n        return projects.length;\r\n    }\r\n\r\n}\r\n",
  "sourcePath": "C:\\Users\\jomib\\Documents\\SLR\\truffle-project\\contracts\\AddProject.sol",
  "compiler": {
    "name": "solc",
    "version": "0.8.17+commit.8df45f5f.Emscripten.clang"
  },
  "schemaVersion": "3.4.11",
  "updatedAt": "2022-12-07T12:35:45.903Z",
  "networkType": "ethereum",
  "devdoc": {
    "author": "Josua Benz",
    "details": "Check if country is a small state has to be implemented on the client side",
    "kind": "dev",
    "methods": {
      "addProject(string,string,uint256)": {
        "details": "The Alexandr N. Tetearing algorithm could increase precision",
        "params": {
          "_amount": "The amount of Ether the project wants to raise.",
          "_name": "The name of the Ppoject.",
          "_state": "The state in which the project is located. Check if this state is a small state has to be implemented in the front-end."
        }
      },
      "getNumberOfProjects()": {
        "returns": {
          "_0": "length the number of projects"
        }
      }
    },
    "title": "Add a project to SeaLevelRaise or view all the projects already added",
    "version": 1
  },
  "userdoc": {
    "kind": "user",
    "methods": {
      "addProject(string,string,uint256)": {
        "notice": "Add new project to SeaLevelRaise. The sender is not allowed to add more than one project."
      },
      "getNumberOfProjects()": {
        "notice": "get the number of projects currently saved on the blockchain"
      }
    },
    "notice": "With this contract, you can add new projects in small states to SeaLevelRaise or get all the projects already added",
    "version": 1
  }
}