{
  "contractName": "AddProject",
  "abi": [
    {
      "anonymous": false,
      "inputs": [
        {
          "indexed": false,
          "internalType": "uint256",
          "name": "id",
          "type": "uint256"
        },
        {
          "indexed": false,
          "internalType": "string",
          "name": "name",
          "type": "string"
        },
        {
          "indexed": false,
          "internalType": "string",
          "name": "state",
          "type": "string"
        },
        {
          "indexed": false,
          "internalType": "uint256",
          "name": "amount",
          "type": "uint256"
        },
        {
          "indexed": false,
          "internalType": "uint256",
          "name": "startDate",
          "type": "uint256"
        },
        {
          "indexed": false,
          "internalType": "uint256",
          "name": "endDate",
          "type": "uint256"
        }
      ],
      "name": "ProjectAdded",
      "type": "event"
    },
    {
      "inputs": [
        {
          "internalType": "uint256",
          "name": "",
          "type": "uint256"
        }
      ],
      "name": "projectToOwner",
      "outputs": [
        {
          "internalType": "address",
          "name": "",
          "type": "address"
        }
      ],
      "stateMutability": "view",
      "type": "function",
      "constant": true
    },
    {
      "inputs": [
        {
          "internalType": "uint256",
          "name": "",
          "type": "uint256"
        }
      ],
      "name": "projects",
      "outputs": [
        {
          "internalType": "string",
          "name": "name",
          "type": "string"
        },
        {
          "internalType": "string",
          "name": "state",
          "type": "string"
        },
        {
          "internalType": "uint32",
          "name": "amount",
          "type": "uint32"
        },
        {
          "internalType": "uint256",
          "name": "startDate",
          "type": "uint256"
        },
        {
          "internalType": "uint256",
          "name": "endDate",
          "type": "uint256"
        }
      ],
      "stateMutability": "view",
      "type": "function",
      "constant": true
    },
    {
      "inputs": [
        {
          "internalType": "string",
          "name": "_name",
          "type": "string"
        },
        {
          "internalType": "string",
          "name": "_state",
          "type": "string"
        },
        {
          "internalType": "uint32",
          "name": "_amount",
          "type": "uint32"
        }
      ],
      "name": "addProject",
      "outputs": [],
      "stateMutability": "nonpayable",
      "type": "function"
    },
    {
      "inputs": [],
      "name": "getNumberOfProjects",
      "outputs": [
        {
          "internalType": "uint256",
          "name": "",
          "type": "uint256"
        }
      ],
      "stateMutability": "view",
      "type": "function",
      "constant": true
    },
    {
      "inputs": [
        {
          "internalType": "uint256",
          "name": "_id",
          "type": "uint256"
        }
      ],
      "name": "getProjectDetails",
      "outputs": [
        {
          "components": [
            {
              "internalType": "string",
              "name": "name",
              "type": "string"
            },
            {
              "internalType": "string",
              "name": "state",
              "type": "string"
            },
            {
              "internalType": "uint32",
              "name": "amount",
              "type": "uint32"
            },
            {
              "internalType": "uint256",
              "name": "startDate",
              "type": "uint256"
            },
            {
              "internalType": "uint256",
              "name": "endDate",
              "type": "uint256"
            }
          ],
          "internalType": "struct AddProject.Project",
          "name": "",
          "type": "tuple"
        }
      ],
      "stateMutability": "view",
      "type": "function",
      "constant": true
    }
  ],
  "bytecode": "0x608060405234801561001057600080fd5b5061114f806100206000396000f3fe608060405234801561001057600080fd5b50600436106100575760003560e01c8063107046bd1461005c57806319ba0b63146100905780634f7cf790146100ae5780635f8439e3146100de578063bf6b160e1461010e575b600080fd5b6100766004803603810190610071919061076b565b61012a565b604051610087959493929190610856565b60405180910390f35b610098610290565b6040516100a591906108b7565b60405180910390f35b6100c860048036038101906100c3919061076b565b61029c565b6040516100d59190610913565b60405180910390f35b6100f860048036038101906100f3919061076b565b6102cf565b6040516101059190610a13565b60405180910390f35b61012860048036038101906101239190610b96565b6104b6565b005b6000818154811061013a57600080fd5b906000526020600020906005020160009150905080600001805461015d90610c50565b80601f016020809104026020016040519081016040528092919081815260200182805461018990610c50565b80156101d65780601f106101ab576101008083540402835291602001916101d6565b820191906000526020600020905b8154815290600101906020018083116101b957829003601f168201915b5050505050908060010180546101eb90610c50565b80601f016020809104026020016040519081016040528092919081815260200182805461021790610c50565b80156102645780601f1061023957610100808354040283529160200191610264565b820191906000526020600020905b81548152906001019060200180831161024757829003601f168201915b5050505050908060020160009054906101000a900463ffffffff16908060030154908060040154905085565b60008080549050905090565b60016020528060005260406000206000915054906101000a900473ffffffffffffffffffffffffffffffffffffffff1681565b6102d76106ec565b60008054905082101561047657600082815481106102f8576102f7610c81565b5b90600052602060002090600502016040518060a001604052908160008201805461032190610c50565b80601f016020809104026020016040519081016040528092919081815260200182805461034d90610c50565b801561039a5780601f1061036f5761010080835404028352916020019161039a565b820191906000526020600020905b81548152906001019060200180831161037d57829003601f168201915b505050505081526020016001820180546103b390610c50565b80601f01602080910402602001604051908101604052809291908181526020018280546103df90610c50565b801561042c5780601f106104015761010080835404028352916020019161042c565b820191906000526020600020905b81548152906001019060200180831161040f57829003601f168201915b505050505081526020016002820160009054906101000a900463ffffffff1663ffffffff1663ffffffff1681526020016003820154815260200160048201548152505090506104b1565b6040517f08c379a00000000000000000000000000000000000000000000000000000000081526004016104a890610cfc565b60405180910390fd5b919050565b6000600260003373ffffffffffffffffffffffffffffffffffffffff1673ffffffffffffffffffffffffffffffffffffffff168152602001908152602001600020541461050257600080fd5b60004290506000626ebe00826105189190610d4b565b905060006040518060a001604052808781526020018681526020018563ffffffff16815260200184815260200183815250908060018154018082558091505060019003906000526020600020906005020160009091909190915060008201518160000190816105879190610f2b565b50602082015181600101908161059d9190610f2b565b5060408201518160020160006101000a81548163ffffffff021916908363ffffffff16021790555060608201518160030155608082015181600401555050336001600060016000805490506105f29190610ffd565b815260200190815260200160002060006101000a81548173ffffffffffffffffffffffffffffffffffffffff021916908373ffffffffffffffffffffffffffffffffffffffff160217905550600260003373ffffffffffffffffffffffffffffffffffffffff1673ffffffffffffffffffffffffffffffffffffffff168152602001908152602001600020600081548092919061068e90611031565b91905055507fbcd9225cf7a5b8bc3641d8ae44c40b40021fa47ba210ad7ea5769534c6c7c4d760016000805490506106c69190610ffd565b86868686866040516106dd969594939291906110aa565b60405180910390a15050505050565b6040518060a001604052806060815260200160608152602001600063ffffffff16815260200160008152602001600081525090565b6000604051905090565b600080fd5b600080fd5b6000819050919050565b61074881610735565b811461075357600080fd5b50565b6000813590506107658161073f565b92915050565b6000602082840312156107815761078061072b565b5b600061078f84828501610756565b91505092915050565b600081519050919050565b600082825260208201905092915050565b60005b838110156107d25780820151818401526020810190506107b7565b60008484015250505050565b6000601f19601f8301169050919050565b60006107fa82610798565b61080481856107a3565b93506108148185602086016107b4565b61081d816107de565b840191505092915050565b600063ffffffff82169050919050565b61084181610828565b82525050565b61085081610735565b82525050565b600060a082019050818103600083015261087081886107ef565b9050818103602083015261088481876107ef565b90506108936040830186610838565b6108a06060830185610847565b6108ad6080830184610847565b9695505050505050565b60006020820190506108cc6000830184610847565b92915050565b600073ffffffffffffffffffffffffffffffffffffffff82169050919050565b60006108fd826108d2565b9050919050565b61090d816108f2565b82525050565b60006020820190506109286000830184610904565b92915050565b600082825260208201905092915050565b600061094a82610798565b610954818561092e565b93506109648185602086016107b4565b61096d816107de565b840191505092915050565b61098181610828565b82525050565b61099081610735565b82525050565b600060a08301600083015184820360008601526109b3828261093f565b915050602083015184820360208601526109cd828261093f565b91505060408301516109e26040860182610978565b5060608301516109f56060860182610987565b506080830151610a086080860182610987565b508091505092915050565b60006020820190508181036000830152610a2d8184610996565b905092915050565b600080fd5b600080fd5b7f4e487b7100000000000000000000000000000000000000000000000000000000600052604160045260246000fd5b610a77826107de565b810181811067ffffffffffffffff82111715610a9657610a95610a3f565b5b80604052505050565b6000610aa9610721565b9050610ab58282610a6e565b919050565b600067ffffffffffffffff821115610ad557610ad4610a3f565b5b610ade826107de565b9050602081019050919050565b82818337600083830152505050565b6000610b0d610b0884610aba565b610a9f565b905082815260208101848484011115610b2957610b28610a3a565b5b610b34848285610aeb565b509392505050565b600082601f830112610b5157610b50610a35565b5b8135610b61848260208601610afa565b91505092915050565b610b7381610828565b8114610b7e57600080fd5b50565b600081359050610b9081610b6a565b92915050565b600080600060608486031215610baf57610bae61072b565b5b600084013567ffffffffffffffff811115610bcd57610bcc610730565b5b610bd986828701610b3c565b935050602084013567ffffffffffffffff811115610bfa57610bf9610730565b5b610c0686828701610b3c565b9250506040610c1786828701610b81565b9150509250925092565b7f4e487b7100000000000000000000000000000000000000000000000000000000600052602260045260246000fd5b60006002820490506001821680610c6857607f821691505b602082108103610c7b57610c7a610c21565b5b50919050565b7f4e487b7100000000000000000000000000000000000000000000000000000000600052603260045260246000fd5b7f70726f6a65637420696420646f6573206e6f7420657869737400000000000000600082015250565b6000610ce66019836107a3565b9150610cf182610cb0565b602082019050919050565b60006020820190508181036000830152610d1581610cd9565b9050919050565b7f4e487b7100000000000000000000000000000000000000000000000000000000600052601160045260246000fd5b6000610d5682610735565b9150610d6183610735565b9250828201905080821115610d7957610d78610d1c565b5b92915050565b60008190508160005260206000209050919050565b60006020601f8301049050919050565b600082821b905092915050565b600060088302610de17fffffffffffffffffffffffffffffffffffffffffffffffffffffffffffffffff82610da4565b610deb8683610da4565b95508019841693508086168417925050509392505050565b6000819050919050565b6000610e28610e23610e1e84610735565b610e03565b610735565b9050919050565b6000819050919050565b610e4283610e0d565b610e56610e4e82610e2f565b848454610db1565b825550505050565b600090565b610e6b610e5e565b610e76818484610e39565b505050565b5b81811015610e9a57610e8f600082610e63565b600181019050610e7c565b5050565b601f821115610edf57610eb081610d7f565b610eb984610d94565b81016020851015610ec8578190505b610edc610ed485610d94565b830182610e7b565b50505b505050565b600082821c905092915050565b6000610f0260001984600802610ee4565b1980831691505092915050565b6000610f1b8383610ef1565b9150826002028217905092915050565b610f3482610798565b67ffffffffffffffff811115610f4d57610f4c610a3f565b5b610f578254610c50565b610f62828285610e9e565b600060209050601f831160018114610f955760008415610f83578287015190505b610f8d8582610f0f565b865550610ff5565b601f198416610fa386610d7f565b60005b82811015610fcb57848901518255600182019150602085019450602081019050610fa6565b86831015610fe85784890151610fe4601f891682610ef1565b8355505b6001600288020188555050505b505050505050565b600061100882610735565b915061101383610735565b925082820390508181111561102b5761102a610d1c565b5b92915050565b600061103c82610735565b91507fffffffffffffffffffffffffffffffffffffffffffffffffffffffffffffffff820361106e5761106d610d1c565b5b600182019050919050565b600061109461108f61108a84610828565b610e03565b610735565b9050919050565b6110a481611079565b82525050565b600060c0820190506110bf6000830189610847565b81810360208301526110d181886107ef565b905081810360408301526110e581876107ef565b90506110f4606083018661109b565b6111016080830185610847565b61110e60a0830184610847565b97965050505050505056fea264697066735822122040d91916bcd242cf7cd7d568082eb6d7934e333ad48700a63183df194116c2d564736f6c63430008110033",
  "immutableReferences": {},
  "source": "// SPDX-License-Identifier: MIT\r\npragma solidity >=0.4.22 <0.9.0;\r\n\r\n/// @title Add a project to SeaLevelRaise or view all the projects already added\r\n/// @author Josua Benz\r\n/// @notice With this contract, you can add new projects in small states to SeaLevelRaise or get all the projects already added\r\n/// @dev Check if country is a small state has to be implemented on the client side\r\ncontract AddProject {\r\n\r\n    //definition of event, will be triggered when new project is added\r\n    event ProjectAdded(uint id, string name, string state, uint amount, uint startDate, uint endDate);\r\n\r\n    // timestamps have to be uint256, not able to safe gas in struct\r\n    struct Project {\r\n        string name;\r\n        string state;\r\n        uint32 amount;\r\n        uint256 startDate;\r\n        uint256 endDate;\r\n    }\r\n    //Array which contains all projects, saved on the blockchain\r\n    Project[] public projects;\r\n    //Mapping a project to the wallet of the person which added this project, saved on the blockchain\r\n    mapping (uint => address) public projectToOwner;\r\n    //Mapping of the count of how many project the person already has created\r\n    mapping (address => uint) ownerProjectCount;\r\n\r\n    /// @notice Add new project to SeaLevelRaise. The sender is not allowed to add more than one project.\r\n    /// @dev The Alexandr N. Tetearing algorithm could increase precision\r\n    /// @param _name The name of the Ppoject.\r\n    /// @param _state The state in which the project is located. Check if this state is a small state has to be implemented in the front-end.\r\n    /// @param _amount The amount of Ether the project wants to raise.\r\n    function addProject(string memory _name, string memory _state, uint32 _amount) public {\r\n        //check whether user(address) has already created a project, if zero, then user can\r\n        //create a new project, otherwise user cannot create new project\r\n        require(ownerProjectCount[msg.sender] == 0);\r\n        //current timestamp as startDate\r\n        uint256 startDate = block.timestamp;\r\n        uint256 endDate = startDate + 12 weeks;\r\n        //add new project to array\r\n        projects.push(Project(_name, _state, _amount, startDate, endDate));\r\n        //add mapping between project and wallet\r\n        projectToOwner[projects.length-1] = msg.sender;\r\n        ownerProjectCount[msg.sender]++;\r\n        //emit event \"ProjectAdded\"\r\n        emit ProjectAdded(projects.length-1, _name, _state, _amount, startDate, endDate);\r\n    } \r\n\r\n    /// @notice get the number of projects currently saved on the blockchain\r\n    /// @return length the number of projects\r\n    function getNumberOfProjects() public view returns(uint) {\r\n        return projects.length;\r\n    }\r\n\r\n    /// @notice get the details of a project\r\n    /// @param _id ID of the project\r\n    /// @return Project the number of projects\r\n    function getProjectDetails(uint _id) public view returns(Project memory) {\r\n        if( _id < projects.length){\r\n            return projects[_id];\r\n        }\r\n        else {\r\n            revert('project id does not exist');\r\n        }\r\n    }\r\n\r\n}\r\n",
  "sourcePath": "C:\\Users\\jomib\\Documents\\SLR\\truffle-project\\contracts\\AddProject.sol",
  "compiler": {
    "name": "solc",
    "version": "0.8.17+commit.8df45f5f.Emscripten.clang"
  },
  "schemaVersion": "3.4.11",
  "updatedAt": "2022-12-13T20:08:06.172Z",
  "networkType": "ethereum",
  "devdoc": {
    "author": "Josua Benz",
    "details": "Check if country is a small state has to be implemented on the client side",
    "kind": "dev",
    "methods": {
      "addProject(string,string,uint32)": {
        "details": "The Alexandr N. Tetearing algorithm could increase precision",
        "params": {
          "_amount": "The amount of Ether the project wants to raise.",
          "_name": "The name of the Ppoject.",
          "_state": "The state in which the project is located. Check if this state is a small state has to be implemented in the front-end."
        }
      },
      "getNumberOfProjects()": {
        "returns": {
          "_0": "length the number of projects"
        }
      },
      "getProjectDetails(uint256)": {
        "params": {
          "_id": "ID of the project"
        },
        "returns": {
          "_0": "Project the number of projects"
        }
      }
    },
    "title": "Add a project to SeaLevelRaise or view all the projects already added",
    "version": 1
  },
  "userdoc": {
    "kind": "user",
    "methods": {
      "addProject(string,string,uint32)": {
        "notice": "Add new project to SeaLevelRaise. The sender is not allowed to add more than one project."
      },
      "getNumberOfProjects()": {
        "notice": "get the number of projects currently saved on the blockchain"
      },
      "getProjectDetails(uint256)": {
        "notice": "get the details of a project"
      }
    },
    "notice": "With this contract, you can add new projects in small states to SeaLevelRaise or get all the projects already added",
    "version": 1
  }
}