{
  "contractName": "Donate",
  "abi": [
    {
      "inputs": [
        {
          "internalType": "address",
          "name": "",
          "type": "address"
        }
      ],
      "name": "userHasDonated",
      "outputs": [
        {
          "internalType": "uint256",
          "name": "",
          "type": "uint256"
        }
      ],
      "stateMutability": "view",
      "type": "function",
      "constant": true
    },
    {
      "inputs": [],
      "name": "donateEther",
      "outputs": [],
      "stateMutability": "payable",
      "type": "function",
      "payable": true
    }
  ],
  "bytecode": "0x608060405234801561001057600080fd5b506101cd806100206000396000f3fe6080604052600436106100295760003560e01c8063364cbfff1461002e578063863451dd1461006b575b600080fd5b34801561003a57600080fd5b5061005560048036038101906100509190610136565b610075565b604051610062919061017c565b60405180910390f35b61007361008d565b005b60006020528060005260406000206000915090505481565b60016000803373ffffffffffffffffffffffffffffffffffffffff1673ffffffffffffffffffffffffffffffffffffffff16815260200190815260200160002081905550565b600080fd5b600073ffffffffffffffffffffffffffffffffffffffff82169050919050565b6000610103826100d8565b9050919050565b610113816100f8565b811461011e57600080fd5b50565b6000813590506101308161010a565b92915050565b60006020828403121561014c5761014b6100d3565b5b600061015a84828501610121565b91505092915050565b6000819050919050565b61017681610163565b82525050565b6000602082019050610191600083018461016d565b9291505056fea264697066735822122047bd75b2e9b939e6c7756e1569b87de78ac461de12e5fe23933ea47f13dcb5e664736f6c63430008110033",
  "immutableReferences": {},
  "source": "// SPDX-License-Identifier: MIT\r\npragma solidity >=0.4.22 <0.9.0;\r\n\r\n/// @title Donate Ether to SeaLevelRaise\r\n/// @author Josua Benz\r\n/// @notice With this contract, you spend money to SeaLevelRaise.\r\ncontract Donate {\r\n    //mapping if user has donated money\r\n    mapping(address => uint) public userHasDonated;\r\n\r\n    /// @notice Donate Ether to SeaLevelRaise\r\n    function donateEther() public payable{\r\n        //TODO hier muss der Bazahlvorgang noch erfolgen\r\n\r\n        //mapping that this user has donated money to SLR\r\n        userHasDonated[msg.sender] = 1;\r\n    }\r\n}\r\n",
  "sourcePath": "C:\\Users\\jomib\\Documents\\SLR\\truffle-project\\contracts\\Donate.sol",
  "compiler": {
    "name": "solc",
    "version": "0.8.17+commit.8df45f5f.Emscripten.clang"
  },
  "schemaVersion": "3.4.11",
  "updatedAt": "2022-12-07T12:35:45.867Z",
  "networkType": "ethereum",
  "devdoc": {
    "author": "Josua Benz",
    "kind": "dev",
    "methods": {},
    "title": "Donate Ether to SeaLevelRaise",
    "version": 1
  },
  "userdoc": {
    "kind": "user",
    "methods": {
      "donateEther()": {
        "notice": "Donate Ether to SeaLevelRaise"
      }
    },
    "notice": "With this contract, you spend money to SeaLevelRaise.",
    "version": 1
  }
}