{
  "contractName": "Vote",
  "abi": [
    {
      "inputs": [
        {
          "internalType": "address",
          "name": "",
          "type": "address"
        }
      ],
      "name": "userHasVoted",
      "outputs": [
        {
          "internalType": "uint256",
          "name": "",
          "type": "uint256"
        }
      ],
      "stateMutability": "view",
      "type": "function",
      "constant": true
    },
    {
      "inputs": [
        {
          "internalType": "uint256",
          "name": "",
          "type": "uint256"
        }
      ],
      "name": "votes",
      "outputs": [
        {
          "internalType": "address",
          "name": "user",
          "type": "address"
        },
        {
          "internalType": "uint256",
          "name": "projectId",
          "type": "uint256"
        }
      ],
      "stateMutability": "view",
      "type": "function",
      "constant": true
    },
    {
      "inputs": [
        {
          "internalType": "uint256",
          "name": "_projectId",
          "type": "uint256"
        }
      ],
      "name": "voteForProject",
      "outputs": [],
      "stateMutability": "nonpayable",
      "type": "function"
    },
    {
      "inputs": [
        {
          "internalType": "uint256",
          "name": "_projectId",
          "type": "uint256"
        }
      ],
      "name": "getAmountOfVotes",
      "outputs": [
        {
          "internalType": "uint256",
          "name": "",
          "type": "uint256"
        }
      ],
      "stateMutability": "view",
      "type": "function",
      "constant": true
    }
  ],
  "bytecode": "0x608060405234801561001057600080fd5b50610545806100206000396000f3fe608060405234801561001057600080fd5b506004361061004c5760003560e01c8063032131dc146100515780635df813301461008157806383a67d38146100b2578063c08ea434146100ce575b600080fd5b61006b60048036038101906100669190610377565b6100fe565b60405161007891906103bd565b60405180910390f35b61009b60048036038101906100969190610404565b610116565b6040516100a9929190610440565b60405180910390f35b6100cc60048036038101906100c79190610404565b61016a565b005b6100e860048036038101906100e39190610404565b6102a5565b6040516100f591906103bd565b60405180910390f35b60006020528060005260406000206000915090505481565b6001818154811061012657600080fd5b90600052602060002090600202016000915090508060000160009054906101000a900473ffffffffffffffffffffffffffffffffffffffff16908060010154905082565b60016000803373ffffffffffffffffffffffffffffffffffffffff1673ffffffffffffffffffffffffffffffffffffffff16815260200190815260200160002054036101b557600080fd5b600160405180604001604052803373ffffffffffffffffffffffffffffffffffffffff16815260200183815250908060018154018082558091505060019003906000526020600020906002020160009091909190915060008201518160000160006101000a81548173ffffffffffffffffffffffffffffffffffffffff021916908373ffffffffffffffffffffffffffffffffffffffff16021790555060208201518160010155505060016000803373ffffffffffffffffffffffffffffffffffffffff1673ffffffffffffffffffffffffffffffffffffffff1681526020019081526020016000208190555050565b6000806000905060005b60018054905081101561030a5783600182815481106102d1576102d0610469565b5b906000526020600020906002020160010154036102f75781806102f3906104c7565b9250505b8080610302906104c7565b9150506102af565b5080915050919050565b600080fd5b600073ffffffffffffffffffffffffffffffffffffffff82169050919050565b600061034482610319565b9050919050565b61035481610339565b811461035f57600080fd5b50565b6000813590506103718161034b565b92915050565b60006020828403121561038d5761038c610314565b5b600061039b84828501610362565b91505092915050565b6000819050919050565b6103b7816103a4565b82525050565b60006020820190506103d260008301846103ae565b92915050565b6103e1816103a4565b81146103ec57600080fd5b50565b6000813590506103fe816103d8565b92915050565b60006020828403121561041a57610419610314565b5b6000610428848285016103ef565b91505092915050565b61043a81610339565b82525050565b60006040820190506104556000830185610431565b61046260208301846103ae565b9392505050565b7f4e487b7100000000000000000000000000000000000000000000000000000000600052603260045260246000fd5b7f4e487b7100000000000000000000000000000000000000000000000000000000600052601160045260246000fd5b60006104d2826103a4565b91507fffffffffffffffffffffffffffffffffffffffffffffffffffffffffffffffff820361050457610503610498565b5b60018201905091905056fea2646970667358221220bc24c22bcc7da856f939898633c9356a5d135d367d242c23b14cdea7c11bc85464736f6c63430008110033",
  "immutableReferences": {},
  "source": "// SPDX-License-Identifier: MIT\r\npragma solidity >=0.4.22 <0.9.0;\r\n\r\nimport \"./Donate.sol\";\r\ncontract Vote {\r\n    //mapping if a user has voted for a project, saved  on the blockchain\r\n    mapping(address => uint) public userHasVoted;\r\n\r\n    struct VoteForProject {\r\n        address user;\r\n        uint projectId;\r\n    }\r\n    //list with all the votes, saved  on the blockchain\r\n    VoteForProject[] public votes;\r\n    \r\n    function voteForProject(uint _projectId) public {\r\n        //the user is required to have donated and to not have voted already\r\n        //require(userHasDonated[msg.sender] == 1);\r\n        require(userHasVoted[msg.sender] != 1);\r\n\r\n        //add this vote to the list of votes\r\n        votes.push(VoteForProject(msg.sender, _projectId));\r\n\r\n        //mapping, that this user has voted\r\n        userHasVoted[msg.sender] = 1;\r\n    }\r\n\r\n    function getAmountOfVotes(uint _projectId) public view returns (uint) {\r\n        //count the amount of votes for this project\r\n        uint _votesForThisProject=0;\r\n        for(uint i=0; i<votes.length; i++) {\r\n            if(votes[i].projectId == _projectId) {\r\n                _votesForThisProject++;\r\n            }\r\n        }\r\n        return _votesForThisProject;\r\n    }\r\n}\r\n",
  "sourcePath": "C:\\Users\\jomib\\Documents\\SLR\\truffle-project\\contracts\\Vote.sol",
  "compiler": {
    "name": "solc",
    "version": "0.8.17+commit.8df45f5f.Emscripten.clang"
  },
  "schemaVersion": "3.4.11",
  "updatedAt": "2022-12-07T12:35:45.879Z",
  "networkType": "ethereum",
  "devdoc": {
    "kind": "dev",
    "methods": {},
    "version": 1
  },
  "userdoc": {
    "kind": "user",
    "methods": {},
    "version": 1
  }
}