{
  "contractName": "Vote",
  "abi": [
    {
      "inputs": [],
      "name": "donateEther",
      "outputs": [],
      "stateMutability": "payable",
      "type": "function",
      "payable": true
    },
    {
      "inputs": [
        {
          "internalType": "address",
          "name": "",
          "type": "address"
        }
      ],
      "name": "userHasDonated",
      "outputs": [
        {
          "internalType": "uint256",
          "name": "",
          "type": "uint256"
        }
      ],
      "stateMutability": "view",
      "type": "function",
      "constant": true
    },
    {
      "inputs": [
        {
          "internalType": "address",
          "name": "",
          "type": "address"
        }
      ],
      "name": "userHasVoted",
      "outputs": [
        {
          "internalType": "uint256",
          "name": "",
          "type": "uint256"
        }
      ],
      "stateMutability": "view",
      "type": "function",
      "constant": true
    },
    {
      "inputs": [
        {
          "internalType": "uint256",
          "name": "",
          "type": "uint256"
        }
      ],
      "name": "votes",
      "outputs": [
        {
          "internalType": "address",
          "name": "user",
          "type": "address"
        },
        {
          "internalType": "uint256",
          "name": "projectId",
          "type": "uint256"
        }
      ],
      "stateMutability": "view",
      "type": "function",
      "constant": true
    },
    {
      "inputs": [
        {
          "internalType": "uint256",
          "name": "_projectId",
          "type": "uint256"
        }
      ],
      "name": "voteForProject",
      "outputs": [],
      "stateMutability": "nonpayable",
      "type": "function"
    },
    {
      "inputs": [
        {
          "internalType": "uint256",
          "name": "_projectId",
          "type": "uint256"
        }
      ],
      "name": "getAmountOfVotes",
      "outputs": [
        {
          "internalType": "uint256",
          "name": "",
          "type": "uint256"
        }
      ],
      "stateMutability": "view",
      "type": "function",
      "constant": true
    }
  ],
  "bytecode": "0x608060405234801561001057600080fd5b50610672806100206000396000f3fe6080604052600436106100555760003560e01c8063032131dc1461005a578063364cbfff146100975780635df81330146100d457806383a67d3814610112578063863451dd1461013b578063c08ea43414610145575b600080fd5b34801561006657600080fd5b50610081600480360381019061007c91906104a4565b610182565b60405161008e91906104ea565b60405180910390f35b3480156100a357600080fd5b506100be60048036038101906100b991906104a4565b61019a565b6040516100cb91906104ea565b60405180910390f35b3480156100e057600080fd5b506100fb60048036038101906100f69190610531565b6101b2565b60405161010992919061056d565b60405180910390f35b34801561011e57600080fd5b5061013960048036038101906101349190610531565b610206565b005b61014361038c565b005b34801561015157600080fd5b5061016c60048036038101906101679190610531565b6103d2565b60405161017991906104ea565b60405180910390f35b60016020528060005260406000206000915090505481565b60006020528060005260406000206000915090505481565b600281815481106101c257600080fd5b90600052602060002090600202016000915090508060000160009054906101000a900473ffffffffffffffffffffffffffffffffffffffff16908060010154905082565b60016000803373ffffffffffffffffffffffffffffffffffffffff1673ffffffffffffffffffffffffffffffffffffffff168152602001908152602001600020541461025157600080fd5b60018060003373ffffffffffffffffffffffffffffffffffffffff1673ffffffffffffffffffffffffffffffffffffffff168152602001908152602001600020540361029c57600080fd5b600260405180604001604052803373ffffffffffffffffffffffffffffffffffffffff16815260200183815250908060018154018082558091505060019003906000526020600020906002020160009091909190915060008201518160000160006101000a81548173ffffffffffffffffffffffffffffffffffffffff021916908373ffffffffffffffffffffffffffffffffffffffff16021790555060208201518160010155505060018060003373ffffffffffffffffffffffffffffffffffffffff1673ffffffffffffffffffffffffffffffffffffffff1681526020019081526020016000208190555050565b60016000803373ffffffffffffffffffffffffffffffffffffffff1673ffffffffffffffffffffffffffffffffffffffff16815260200190815260200160002081905550565b6000806000905060005b6002805490508110156104375783600282815481106103fe576103fd610596565b5b90600052602060002090600202016001015403610424578180610420906105f4565b9250505b808061042f906105f4565b9150506103dc565b5080915050919050565b600080fd5b600073ffffffffffffffffffffffffffffffffffffffff82169050919050565b600061047182610446565b9050919050565b61048181610466565b811461048c57600080fd5b50565b60008135905061049e81610478565b92915050565b6000602082840312156104ba576104b9610441565b5b60006104c88482850161048f565b91505092915050565b6000819050919050565b6104e4816104d1565b82525050565b60006020820190506104ff60008301846104db565b92915050565b61050e816104d1565b811461051957600080fd5b50565b60008135905061052b81610505565b92915050565b60006020828403121561054757610546610441565b5b60006105558482850161051c565b91505092915050565b61056781610466565b82525050565b6000604082019050610582600083018561055e565b61058f60208301846104db565b9392505050565b7f4e487b7100000000000000000000000000000000000000000000000000000000600052603260045260246000fd5b7f4e487b7100000000000000000000000000000000000000000000000000000000600052601160045260246000fd5b60006105ff826104d1565b91507fffffffffffffffffffffffffffffffffffffffffffffffffffffffffffffffff8203610631576106306105c5565b5b60018201905091905056fea26469706673582212204b268e6e54d6f402df8bf37ab6728f436aea763059650d39a2963b83f6df6c2164736f6c63430008110033",
  "immutableReferences": {},
  "source": "// SPDX-License-Identifier: MIT\r\npragma solidity >=0.4.22 <0.9.0;\r\n\r\nimport \"./Donate.sol\";\r\n\r\n/// @title Vote for the project the user wants to donate the money to\r\n/// @author Josua Benz\r\n/// @notice With this contract, you can vote for the project you want to donate the money to\r\n/// @dev uses the userHasVoted mapping from Donate.sol\r\ncontract Vote is Donate {\r\n    //mapping if a user has voted for a project, saved  on the blockchain\r\n    mapping(address => uint) public userHasVoted;\r\n\r\n    struct VoteForProject {\r\n        address user;\r\n        uint projectId;\r\n    }\r\n    //list with all the votes, saved  on the blockchain\r\n    VoteForProject[] public votes;\r\n    \r\n    /// @notice Vote for a project in SeaLevelRaise. The user is not allowed to vote more than one time and only if they have donated.\r\n    /// @dev uses userHasDonated from Contract Donate.sol\r\n    /// @param _projectId The ID of the Project the user wants to vote for.\r\n    function voteForProject(uint _projectId) public {\r\n        //the user is required to have donated and to not have voted already\r\n        require(userHasDonated[msg.sender] == 1);\r\n        require(userHasVoted[msg.sender] != 1);\r\n\r\n        //add this vote to the list of votes\r\n        votes.push(VoteForProject(msg.sender, _projectId));\r\n\r\n        //mapping, that this user has voted\r\n        userHasVoted[msg.sender] = 1;\r\n    }\r\n\r\n    /// @notice Get the amount of votes of one project\r\n    /// @param _projectId The ID of the project\r\n    /// @return _votesForThisProject amount of votes for this project\r\n    function getAmountOfVotes(uint _projectId) public view returns (uint) {\r\n        //count the amount of votes for this project\r\n        uint _votesForThisProject=0;\r\n        for(uint i=0; i<votes.length; i++) {\r\n            if(votes[i].projectId == _projectId) {\r\n                _votesForThisProject++;\r\n            }\r\n        }\r\n        return _votesForThisProject;\r\n    }\r\n}\r\n",
  "sourcePath": "C:\\Users\\jomib\\Documents\\SLR\\truffle-project\\contracts\\Vote.sol",
  "compiler": {
    "name": "solc",
    "version": "0.8.17+commit.8df45f5f.Emscripten.clang"
  },
  "schemaVersion": "3.4.11",
  "updatedAt": "2022-12-13T20:08:06.160Z",
  "networkType": "ethereum",
  "devdoc": {
    "author": "Josua Benz",
    "details": "uses the userHasVoted mapping from Donate.sol",
    "kind": "dev",
    "methods": {
      "getAmountOfVotes(uint256)": {
        "params": {
          "_projectId": "The ID of the project"
        },
        "returns": {
          "_0": "_votesForThisProject amount of votes for this project"
        }
      },
      "voteForProject(uint256)": {
        "details": "uses userHasDonated from Contract Donate.sol",
        "params": {
          "_projectId": "The ID of the Project the user wants to vote for."
        }
      }
    },
    "title": "Vote for the project the user wants to donate the money to",
    "version": 1
  },
  "userdoc": {
    "kind": "user",
    "methods": {
      "donateEther()": {
        "notice": "Donate Ether to SeaLevelRaise"
      },
      "getAmountOfVotes(uint256)": {
        "notice": "Get the amount of votes of one project"
      },
      "voteForProject(uint256)": {
        "notice": "Vote for a project in SeaLevelRaise. The user is not allowed to vote more than one time and only if they have donated."
      }
    },
    "notice": "With this contract, you can vote for the project you want to donate the money to",
    "version": 1
  }
}